{
  "_format": "hh3-artifact-1",
  "contractName": "SanctumRegistry",
  "sourceName": "contracts/SanctumRegistry.sol",
  "abi": [
    {
      "anonymous": false,
      "inputs": [
        {
          "indexed": false,
          "internalType": "string",
          "name": "domain",
          "type": "string"
        },
        {
          "indexed": false,
          "internalType": "string",
          "name": "emotionalTag",
          "type": "string"
        },
        {
          "indexed": false,
          "internalType": "address",
          "name": "steward",
          "type": "address"
        }
      ],
      "name": "SanctumBound",
      "type": "event"
    },
    {
      "inputs": [
        {
          "internalType": "string",
          "name": "domain",
          "type": "string"
        },
        {
          "internalType": "string",
          "name": "emotionalTag",
          "type": "string"
        }
      ],
      "name": "bindSanctum",
      "outputs": [],
      "stateMutability": "nonpayable",
      "type": "function"
    },
    {
      "inputs": [
        {
          "internalType": "string",
          "name": "domain",
          "type": "string"
        }
      ],
      "name": "getSanctum",
      "outputs": [
        {
          "internalType": "string",
          "name": "",
          "type": "string"
        },
        {
          "internalType": "address",
          "name": "",
          "type": "address"
        }
      ],
      "stateMutability": "view",
      "type": "function"
    },
    {
      "inputs": [
        {
          "internalType": "string",
          "name": "",
          "type": "string"
        }
      ],
      "name": "sanctums",
      "outputs": [
        {
          "internalType": "string",
          "name": "emotionalTag",
          "type": "string"
        },
        {
          "internalType": "address",
          "name": "steward",
          "type": "address"
        }
      ],
      "stateMutability": "view",
      "type": "function"
    }
  ],
  "bytecode": "0x6080604052348015600e575f5ffd5b50610a1b8061001c5f395ff3fe608060405234801561000f575f5ffd5b506004361061003f575f3560e01c80631fd5fda614610043578063dd81fc6d14610074578063e206f33e14610090575b5f5ffd5b61005d600480360381019061005891906104f3565b6100c1565b60405161006b9291906105d9565b60405180910390f35b61008e60048036038101906100899190610607565b61019d565b005b6100aa60048036038101906100a591906104f3565b610281565b6040516100b89291906105d9565b60405180910390f35b5f818051602081018201805184825260208301602085012081835280955050505050505f91509050805f0180546100f7906106aa565b80601f0160208091040260200160405190810160405280929190818152602001828054610123906106aa565b801561016e5780601f106101455761010080835404028352916020019161016e565b820191905f5260205f20905b81548152906001019060200180831161015157829003601f168201915b505050505090806001015f9054906101000a900473ffffffffffffffffffffffffffffffffffffffff16905082565b60405180604001604052808281526020013373ffffffffffffffffffffffffffffffffffffffff168152505f836040516101d79190610714565b90815260200160405180910390205f820151815f0190816101f891906108d3565b506020820151816001015f6101000a81548173ffffffffffffffffffffffffffffffffffffffff021916908373ffffffffffffffffffffffffffffffffffffffff1602179055509050507f6f23b1ffc0b527125cc6df646c92f50ef03dd1db62c79fbc21220e9c1e937d49828233604051610275939291906109a2565b60405180910390a15050565b60605f5f5f846040516102949190610714565b90815260200160405180910390206040518060400160405290815f820180546102bc906106aa565b80601f01602080910402602001604051908101604052809291908181526020018280546102e8906106aa565b80156103335780601f1061030a57610100808354040283529160200191610333565b820191905f5260205f20905b81548152906001019060200180831161031657829003601f168201915b50505050508152602001600182015f9054906101000a900473ffffffffffffffffffffffffffffffffffffffff1673ffffffffffffffffffffffffffffffffffffffff1673ffffffffffffffffffffffffffffffffffffffff16815250509050805f015181602001519250925050915091565b5f604051905090565b5f5ffd5b5f5ffd5b5f5ffd5b5f5ffd5b5f601f19601f8301169050919050565b7f4e487b71000000000000000000000000000000000000000000000000000000005f52604160045260245ffd5b610405826103bf565b810181811067ffffffffffffffff82111715610424576104236103cf565b5b80604052505050565b5f6104366103a6565b905061044282826103fc565b919050565b5f67ffffffffffffffff821115610461576104606103cf565b5b61046a826103bf565b9050602081019050919050565b828183375f83830152505050565b5f61049761049284610447565b61042d565b9050828152602081018484840111156104b3576104b26103bb565b5b6104be848285610477565b509392505050565b5f82601f8301126104da576104d96103b7565b5b81356104ea848260208601610485565b91505092915050565b5f60208284031215610508576105076103af565b5b5f82013567ffffffffffffffff811115610525576105246103b3565b5b610531848285016104c6565b91505092915050565b5f81519050919050565b5f82825260208201905092915050565b8281835e5f83830152505050565b5f61056c8261053a565b6105768185610544565b9350610586818560208601610554565b61058f816103bf565b840191505092915050565b5f73ffffffffffffffffffffffffffffffffffffffff82169050919050565b5f6105c38261059a565b9050919050565b6105d3816105b9565b82525050565b5f6040820190508181035f8301526105f18185610562565b905061060060208301846105ca565b9392505050565b5f5f6040838503121561061d5761061c6103af565b5b5f83013567ffffffffffffffff81111561063a576106396103b3565b5b610646858286016104c6565b925050602083013567ffffffffffffffff811115610667576106666103b3565b5b610673858286016104c6565b9150509250929050565b7f4e487b71000000000000000000000000000000000000000000000000000000005f52602260045260245ffd5b5f60028204905060018216806106c157607f821691505b6020821081036106d4576106d361067d565b5b50919050565b5f81905092915050565b5f6106ee8261053a565b6106f881856106da565b9350610708818560208601610554565b80840191505092915050565b5f61071f82846106e4565b915081905092915050565b5f819050815f5260205f209050919050565b5f6020601f8301049050919050565b5f82821b905092915050565b5f600883026107867fffffffffffffffffffffffffffffffffffffffffffffffffffffffffffffffff8261074b565b610790868361074b565b95508019841693508086168417925050509392505050565b5f819050919050565b5f819050919050565b5f6107d46107cf6107ca846107a8565b6107b1565b6107a8565b9050919050565b5f819050919050565b6107ed836107ba565b6108016107f9826107db565b848454610757565b825550505050565b5f5f905090565b610818610809565b6108238184846107e4565b505050565b5b818110156108465761083b5f82610810565b600181019050610829565b5050565b601f82111561088b5761085c8161072a565b6108658461073c565b81016020851015610874578190505b6108886108808561073c565b830182610828565b50505b505050565b5f82821c905092915050565b5f6108ab5f1984600802610890565b1980831691505092915050565b5f6108c3838361089c565b9150826002028217905092915050565b6108dc8261053a565b67ffffffffffffffff8111156108f5576108f46103cf565b5b6108ff82546106aa565b61090a82828561084a565b5f60209050601f83116001811461093b575f8415610929578287015190505b61093385826108b8565b86555061099a565b601f1984166109498661072a565b5f5b828110156109705784890151825560018201915060208501945060208101905061094b565b8683101561098d5784890151610989601f89168261089c565b8355505b6001600288020188555050505b505050505050565b5f6060820190508181035f8301526109ba8186610562565b905081810360208301526109ce8185610562565b90506109dd60408301846105ca565b94935050505056fea2646970667358221220d4918ec2d3022312a745f0f3f993018571c9266143c6196e1de49ecf3795eba664736f6c634300081c0033",
  "linkReferences": {},
  "deployedLinkReferences": {},
  "immutableReferences": {},
  "inputSourceName": "project/contracts/SanctumRegistry.sol",
  "buildInfoId": "solc-0_8_28-a664cd61b7e8847290a013523d597f74cd4039a6"
}